{
  "_format": "hh-sol-artifact-1",
  "contractName": "TravelTrust",
  "sourceName": "contracts/TravelTrust.sol",
  "abi": [
    {
      "inputs": [],
      "stateMutability": "nonpayable",
      "type": "constructor"
    },
    {
      "inputs": [],
      "name": "HandlesAlreadySavedForRequestID",
      "type": "error"
    },
    {
      "inputs": [],
      "name": "InvalidKMSSignatures",
      "type": "error"
    },
    {
      "inputs": [],
      "name": "NoHandleFoundForRequestID",
      "type": "error"
    },
    {
      "anonymous": false,
      "inputs": [
        {
          "indexed": true,
          "internalType": "uint256",
          "name": "requestID",
          "type": "uint256"
        }
      ],
      "name": "DecryptionFulfilled",
      "type": "event"
    },
    {
      "anonymous": false,
      "inputs": [
        {
          "indexed": true,
          "internalType": "address",
          "name": "reviewer",
          "type": "address"
        },
        {
          "indexed": true,
          "internalType": "string",
          "name": "serviceId",
          "type": "string"
        }
      ],
      "name": "ReviewSubmitted",
      "type": "event"
    },
    {
      "anonymous": false,
      "inputs": [
        {
          "indexed": true,
          "internalType": "string",
          "name": "serviceId",
          "type": "string"
        },
        {
          "indexed": false,
          "internalType": "string",
          "name": "name",
          "type": "string"
        },
        {
          "indexed": true,
          "internalType": "address",
          "name": "owner",
          "type": "address"
        }
      ],
      "name": "ServiceAdded",
      "type": "event"
    },
    {
      "anonymous": false,
      "inputs": [
        {
          "indexed": true,
          "internalType": "address",
          "name": "to",
          "type": "address"
        },
        {
          "indexed": false,
          "internalType": "uint256",
          "name": "amount",
          "type": "uint256"
        }
      ],
      "name": "ServiceFeesWithdrawn",
      "type": "event"
    },
    {
      "anonymous": false,
      "inputs": [
        {
          "indexed": true,
          "internalType": "address",
          "name": "buyer",
          "type": "address"
        },
        {
          "indexed": true,
          "internalType": "address",
          "name": "serviceOwner",
          "type": "address"
        },
        {
          "indexed": true,
          "internalType": "string",
          "name": "serviceId",
          "type": "string"
        }
      ],
      "name": "ServicePaid",
      "type": "event"
    },
    {
      "inputs": [
        {
          "internalType": "string",
          "name": "serviceId",
          "type": "string"
        },
        {
          "internalType": "string",
          "name": "name",
          "type": "string"
        },
        {
          "internalType": "externalEuint64",
          "name": "encryptedPrice",
          "type": "bytes32"
        },
        {
          "internalType": "bytes",
          "name": "inputProof",
          "type": "bytes"
        }
      ],
      "name": "addService",
      "outputs": [],
      "stateMutability": "payable",
      "type": "function"
    },
    {
      "inputs": [
        {
          "internalType": "string",
          "name": "serviceId",
          "type": "string"
        },
        {
          "internalType": "address",
          "name": "reviewer",
          "type": "address"
        }
      ],
      "name": "getReview",
      "outputs": [
        {
          "components": [
            {
              "internalType": "euint8",
              "name": "rating",
              "type": "bytes32"
            },
            {
              "internalType": "string",
              "name": "comment",
              "type": "string"
            },
            {
              "internalType": "bool",
              "name": "exists",
              "type": "bool"
            }
          ],
          "internalType": "struct TravelTrust.Review",
          "name": "",
          "type": "tuple"
        }
      ],
      "stateMutability": "view",
      "type": "function"
    },
    {
      "inputs": [
        {
          "internalType": "string",
          "name": "serviceId",
          "type": "string"
        },
        {
          "internalType": "address",
          "name": "sOwner",
          "type": "address"
        }
      ],
      "name": "getService",
      "outputs": [
        {
          "components": [
            {
              "internalType": "string",
              "name": "id",
              "type": "string"
            },
            {
              "internalType": "address",
              "name": "owner",
              "type": "address"
            },
            {
              "internalType": "string",
              "name": "name",
              "type": "string"
            },
            {
              "internalType": "euint64",
              "name": "price",
              "type": "bytes32"
            }
          ],
          "internalType": "struct TravelTrust.Service",
          "name": "",
          "type": "tuple"
        }
      ],
      "stateMutability": "view",
      "type": "function"
    },
    {
      "inputs": [
        {
          "internalType": "string",
          "name": "",
          "type": "string"
        },
        {
          "internalType": "address",
          "name": "",
          "type": "address"
        }
      ],
      "name": "hasPaymented",
      "outputs": [
        {
          "internalType": "bool",
          "name": "",
          "type": "bool"
        }
      ],
      "stateMutability": "view",
      "type": "function"
    },
    {
      "inputs": [],
      "name": "owner",
      "outputs": [
        {
          "internalType": "address",
          "name": "",
          "type": "address"
        }
      ],
      "stateMutability": "view",
      "type": "function"
    },
    {
      "inputs": [],
      "name": "ping",
      "outputs": [
        {
          "internalType": "string",
          "name": "",
          "type": "string"
        }
      ],
      "stateMutability": "view",
      "type": "function"
    },
    {
      "inputs": [
        {
          "internalType": "uint256",
          "name": "requestId",
          "type": "uint256"
        },
        {
          "internalType": "bytes",
          "name": "cleartexts",
          "type": "bytes"
        },
        {
          "internalType": "bytes",
          "name": "decryptionProof",
          "type": "bytes"
        }
      ],
      "name": "priceDycryptCallback",
      "outputs": [],
      "stateMutability": "payable",
      "type": "function"
    },
    {
      "inputs": [],
      "name": "protocolId",
      "outputs": [
        {
          "internalType": "uint256",
          "name": "",
          "type": "uint256"
        }
      ],
      "stateMutability": "pure",
      "type": "function"
    },
    {
      "inputs": [
        {
          "internalType": "string",
          "name": "",
          "type": "string"
        },
        {
          "internalType": "address",
          "name": "",
          "type": "address"
        }
      ],
      "name": "reviews",
      "outputs": [
        {
          "internalType": "euint8",
          "name": "rating",
          "type": "bytes32"
        },
        {
          "internalType": "string",
          "name": "comment",
          "type": "string"
        },
        {
          "internalType": "bool",
          "name": "exists",
          "type": "bool"
        }
      ],
      "stateMutability": "view",
      "type": "function"
    },
    {
      "inputs": [],
      "name": "serviceFees",
      "outputs": [
        {
          "internalType": "uint256",
          "name": "",
          "type": "uint256"
        }
      ],
      "stateMutability": "view",
      "type": "function"
    },
    {
      "inputs": [
        {
          "internalType": "address",
          "name": "serviceOwner",
          "type": "address"
        },
        {
          "internalType": "string",
          "name": "serviceId",
          "type": "string"
        }
      ],
      "name": "servicePayment",
      "outputs": [],
      "stateMutability": "payable",
      "type": "function"
    },
    {
      "inputs": [
        {
          "internalType": "string",
          "name": "",
          "type": "string"
        }
      ],
      "name": "serviceStats",
      "outputs": [
        {
          "internalType": "euint32",
          "name": "totalSum",
          "type": "bytes32"
        },
        {
          "internalType": "euint32",
          "name": "totalCount",
          "type": "bytes32"
        }
      ],
      "stateMutability": "view",
      "type": "function"
    },
    {
      "inputs": [
        {
          "internalType": "address",
          "name": "",
          "type": "address"
        },
        {
          "internalType": "string",
          "name": "",
          "type": "string"
        }
      ],
      "name": "services",
      "outputs": [
        {
          "internalType": "string",
          "name": "id",
          "type": "string"
        },
        {
          "internalType": "address",
          "name": "owner",
          "type": "address"
        },
        {
          "internalType": "string",
          "name": "name",
          "type": "string"
        },
        {
          "internalType": "euint64",
          "name": "price",
          "type": "bytes32"
        }
      ],
      "stateMutability": "view",
      "type": "function"
    },
    {
      "inputs": [
        {
          "internalType": "address",
          "name": "serviceOwner",
          "type": "address"
        },
        {
          "internalType": "string",
          "name": "serviceId",
          "type": "string"
        },
        {
          "internalType": "externalEuint8",
          "name": "encryptedRating",
          "type": "bytes32"
        },
        {
          "internalType": "bytes",
          "name": "inputProof",
          "type": "bytes"
        },
        {
          "internalType": "string",
          "name": "comment",
          "type": "string"
        }
      ],
      "name": "submitReview",
      "outputs": [],
      "stateMutability": "nonpayable",
      "type": "function"
    },
    {
      "inputs": [
        {
          "internalType": "address",
          "name": "to",
          "type": "address"
        }
      ],
      "name": "withdrawServiceFees",
      "outputs": [],
      "stateMutability": "nonpayable",
      "type": "function"
    },
    {
      "stateMutability": "payable",
      "type": "receive"
    }
  ],
  "bytecode": "0x608060405234801561000f575f80fd5b5061018a6100ae604080516080810182525f808252602082018190529181018290526060810191909152506040805160808101825273687820221192c5b662b25367f70076a37bc79b6c815273848b0066793bcc60346da1f49049357399b8d595602082015273a02cda4ca3a71d7c46997716f4283aa851c2881291810191909152731364cbbf2cdf5032c47d8226a6f6fbd2afcdacac606082015290565b80517f9e7b61f58c47dc699ac88507c4f5bb9f121c03808c5676a8078fe583e464970080546001600160a01b03199081166001600160a01b039384161790915560208301517f9e7b61f58c47dc699ac88507c4f5bb9f121c03808c5676a8078fe583e46497018054831691841691909117905560408301517f9e7b61f58c47dc699ac88507c4f5bb9f121c03808c5676a8078fe583e46497028054831691841691909117905560608301517f9e7b61f58c47dc699ac88507c4f5bb9f121c03808c5676a8078fe583e46497038054909216921691909117905550565b5f80546001600160a01b031916331790556125bd806101a85f395ff3fe6080604052600436106100e7575f3560e01c806380857ffa116100875780639bc4aa4c116100575780639bc4aa4c14610306578063a18084c014610319578063da1f12ab1461032c578063ee07a8bd14610340575f80fd5b806380857ffa1461022e5780638249be8c146102515780638882ea901461027d5780638da5cb5b146102d0575f80fd5b80634c85bd65116100c25780634c85bd6514610191578063519fbef6146101c05780635c36b186146101ee57806378a1d5e21461020f575f80fd5b806325327eb6146100f257806327df7a7f146101075780632fb85dc014610165575f80fd5b366100ee57005b5f80fd5b610105610100366004611e4e565b61035f565b005b348015610112575f80fd5b50610150610121366004611efb565b81516020818401810180516004825292820194820194909420919093529091525f908152604090205460ff1681565b60405190151581526020015b60405180910390f35b348015610170575f80fd5b5061018461017f366004611efb565b61055f565b60405161015c9190611f93565b34801561019c575f80fd5b506101b06101ab366004611ff5565b61078c565b60405161015c9493929190612040565b3480156101cb575f80fd5b506101df6101da366004611efb565b6108ea565b60405161015c93929190612085565b3480156101f9575f80fd5b506102026109b0565b60405161015c91906120af565b34801561021a575f80fd5b506101056102293660046120c1565b610a2b565b348015610239575f80fd5b5061024360075481565b60405190815260200161015c565b34801561025c575f80fd5b5061027061026b366004611efb565b610bc5565b60405161015c91906120da565b348015610288575f80fd5b506102bb610297366004612117565b80516020818301810180516003825292820191909301209152805460019091015482565b6040805192835260208301919091520161015c565b3480156102db575f80fd5b505f546102ee906001600160a01b031681565b6040516001600160a01b03909116815260200161015c565b610105610314366004612149565b610ccc565b610105610327366004611ff5565b610f66565b348015610337575f80fd5b50612711610243565b34801561034b575f80fd5b5061010561035a3660046121b1565b611178565b335f90815260016020526040808220905161037b908890612258565b908152604051908190036020019020600101546001600160a01b0316146103e95760405162461bcd60e51b815260206004820152601660248201527f5365727669636520616c7265616479206578697374730000000000000000000060448201526064015b60405180910390fd5b3460075f8282546103fa9190612287565b925050819055505f6104418484848080601f0160208091040260200160405190810160405280939291908181526020018383808284375f9201919091525061144392505050565b905061044c81611457565b5060408051608081018252878152336020808301829052828401899052606083018590525f91825260019052829020915190919061048b908990612258565b908152604051908190036020019020815181906104a8908261231e565b50602082015160018201805473ffffffffffffffffffffffffffffffffffffffff19166001600160a01b03909216919091179055604082015160028201906104f0908261231e565b506060820151816003015590505061050781611466565b506040513390610518908890612258565b60405180910390207fc8e986456ded3f882a86389a6212fd7c3ad7a8f83a0a2e4782915b85313a6a008760405161054f91906120af565b60405180910390a3505050505050565b6040805160808101825260608082525f602083018190529282018190528101919091526001600160a01b0382165f9081526001602052604080822090516105a7908690612258565b908152604051908190036020019020600101546001600160a01b0316036106045760405162461bcd60e51b815260206004820152601160248201527014d95c9d9a58d9481b9bdd08199bdd5b99607a1b60448201526064016103e0565b6001600160a01b0382165f9081526001602052604090819020905161062a908590612258565b90815260200160405180910390206040518060800160405290815f820180546106529061229a565b80601f016020809104026020016040519081016040528092919081815260200182805461067e9061229a565b80156106c95780601f106106a0576101008083540402835291602001916106c9565b820191905f5260205f20905b8154815290600101906020018083116106ac57829003601f168201915b505050918352505060018201546001600160a01b031660208201526002820180546040909201916106f99061229a565b80601f01602080910402602001604051908101604052809291908181526020018280546107259061229a565b80156107705780601f1061074757610100808354040283529160200191610770565b820191905f5260205f20905b81548152906001019060200180831161075357829003601f168201915b5050505050815260200160038201548152505090505b92915050565b600160209081525f928352604090922081518083018401805192815290840192909301919091209152805481906107c29061229a565b80601f01602080910402602001604051908101604052809291908181526020018280546107ee9061229a565b80156108395780601f1061081057610100808354040283529160200191610839565b820191905f5260205f20905b81548152906001019060200180831161081c57829003601f168201915b505050600184015460028501805494956001600160a01b039092169491935091506108639061229a565b80601f016020809104026020016040519081016040528092919081815260200182805461088f9061229a565b80156108da5780601f106108b1576101008083540402835291602001916108da565b820191905f5260205f20905b8154815290600101906020018083116108bd57829003601f168201915b5050505050908060030154905084565b81516020818401810180516002825292820194820194909420919093529091525f9081526040902080546001820180549192916109269061229a565b80601f01602080910402602001604051908101604052809291908181526020018280546109529061229a565b801561099d5780601f106109745761010080835404028352916020019161099d565b820191905f5260205f20905b81548152906001019060200180831161098057829003601f168201915b5050506002909301549192505060ff1683565b5f546060906001600160a01b03163314610a0c5760405162461bcd60e51b815260206004820152601460248201527f4f6e6c79206f776e65722063616e2063616c6c2e00000000000000000000000060448201526064016103e0565b50604080518082019091526004815263706f6e6760e01b602082015290565b5f546001600160a01b03163314610a845760405162461bcd60e51b815260206004820152601460248201527f4f6e6c79206f776e65722063616e2063616c6c2e00000000000000000000000060448201526064016103e0565b5f60075411610ad55760405162461bcd60e51b815260206004820152601360248201527f4e6f206665657320746f2077697468647261770000000000000000000000000060448201526064016103e0565b600780545f918290556040519091906001600160a01b0384169083908381818185875af1925050503d805f8114610b27576040519150601f19603f3d011682016040523d82523d5f602084013e610b2c565b606091505b5050905080610b7d5760405162461bcd60e51b815260206004820152600f60248201527f5769746864726177206661696c6564000000000000000000000000000000000060448201526064016103e0565b826001600160a01b03167f5dd2c31d9d2a5e0c0e2e541b1f995d773f6bc1f9243abd398748ad5ba13e64db83604051610bb891815260200190565b60405180910390a2505050565b60408051606080820183525f8083526020830191909152818301529051600290610bf0908590612258565b9081526040805191829003602090810183206001600160a01b0386165f908152908252829020606084019092528154835260018201805491840191610c349061229a565b80601f0160208091040260200160405190810160405280929190818152602001828054610c609061229a565b8015610cab5780601f10610c8257610100808354040283529160200191610cab565b820191905f5260205f20905b815481529060010190602001808311610c8e57829003601f168201915b50505091835250506002919091015460ff1615156020909101529392505050565b610cd7838383611470565b5f82806020019051810190610cec91906123de565b5f858152600660209081526040808320546005909252822080549394506001600160a01b0390911692610d1e9061229a565b80601f0160208091040260200160405190810160405280929190818152602001828054610d4a9061229a565b8015610d955780601f10610d6c57610100808354040283529160200191610d95565b820191905f5260205f20905b815481529060010190602001808311610d7857829003601f168201915b505050505090505f60015f846001600160a01b03166001600160a01b031681526020019081526020015f2082604051610dce9190612258565b908152602001604051809103902090508367ffffffffffffffff163414610e375760405162461bcd60e51b815260206004820152601860248201527f496e636f7272656374207061796d656e7420616d6f756e74000000000000000060448201526064016103e0565b60018101546040515f916001600160a01b03169034908381818185875af1925050503d805f8114610e83576040519150601f19603f3d011682016040523d82523d5f602084013e610e88565b606091505b5050905080610ed95760405162461bcd60e51b815260206004820152600e60248201527f5061796d656e74206661696c656400000000000000000000000000000000000060448201526064016103e0565b6001600484604051610eeb9190612258565b9081526040805160209281900383018120335f90815293529120805460ff191692151592909217909155610f20908490612258565b604051908190038120906001600160a01b0386169033907fe1b44d6d4dceed793c55cc36920895a1c371cf15f02813a739ad79e977aeb46c905f90a45050505050505050565b6001600160a01b0382165f908152600160205260408082209051610f8b908490612258565b90815260405190819003602001902060018101549091506001600160a01b0316610feb5760405162461bcd60e51b815260206004820152601160248201527014d95c9d9a58d9481b9bdd08199bdd5b99607a1b60448201526064016103e0565b600482604051610ffb9190612258565b9081526040805160209281900383019020335f908152925290205460ff16156110725760405162461bcd60e51b8152602060048201526024808201527f596f7520616c7265616479207061796d656e7420666f722074686973207365726044820152637669636560e01b60648201526084016103e0565b6001600160a01b03831633036110ca5760405162461bcd60e51b815260206004820152601560248201527f4f776e65722063616e6e6f74207061792073656c66000000000000000000000060448201526064016103e0565b6040805160018082528183019092525f91602080830190803683375050506003830154909150815f8151811061110257611102612405565b60209081029190910101525f61111f826326f12a9360e21b6114d9565b5f818152600560205260409020909150611139858261231e565b505f908152600660205260409020805473ffffffffffffffffffffffffffffffffffffffff19166001600160a01b039590951694909417909355505050565b6001600160a01b0387165f90815260016020526040808220905161119d908990612258565b90815260405190819003602001902060018101549091506001600160a01b03166111fd5760405162461bcd60e51b815260206004820152601160248201527014d95c9d9a58d9481b9bdd08199bdd5b99607a1b60448201526064016103e0565b60028760405161120d9190612258565b9081526040805160209281900383019020335f908152925290206002015460ff161561127b5760405162461bcd60e51b815260206004820152601860248201527f52657669657720616c7265616479207375626d6974746564000000000000000060448201526064016103e0565b5f6112bb8787878080601f0160208091040260200160405190810160405280939291908181526020018383808284375f920191909152506114e592505050565b90506112c781336114f2565b506112d181611457565b505f6112dc82611504565b90505f6112e96001611510565b90505f60038b6040516112fc9190612258565b90815260200160405180910390209050611319815f015484611522565b8155600181015461132a9083611522565b6001820155805461133a90611457565b506113488160010154611457565b50604051806060016040528085815260200188888080601f0160208091040260200160405190810160405280939291908181526020018383808284375f9201919091525050509082525060016020909101526040516002906113ab908e90612258565b9081526040805160209281900383019020335f90815290835220825181559082015160018201906113dc908261231e565b50604091820151600291909101805460ff191691151591909117905551611404908c90612258565b6040519081900381209033907f0ef4f9d8b93ff55ce14b593552db0c227199edf3015c06d33c327a710aa2b480905f90a3505050505050505050505050565b5f61145083836005611550565b9392505050565b5f6114628230611670565b5090565b5f611462826116f7565b5f61147a84611788565b90505f611488828585611859565b9050806114a85760405163cf6c44e960e01b815260040160405180910390fd5b60405185907f1af0453083661051f6e56e5c070792320652e612154bf9af8637bb1e7655b99d905f90a25050505050565b5f61145083835f611945565b5f61145083836002611550565b5f6114fd8383611670565b5090919050565b5f610786826004611a73565b5f6107868263ffffffff166004611b30565b5f82611534576115315f611510565b92505b81611545576115425f611510565b91505b61145083835f611ba5565b7f9e7b61f58c47dc699ac88507c4f5bb9f121c03808c5676a8078fe583e46497015460405163196d0b9b60e01b81525f917f9e7b61f58c47dc699ac88507c4f5bb9f121c03808c5676a8078fe583e4649700916001600160a01b039091169063196d0b9b906115c9908890339089908990600401612439565b6020604051808303815f875af11580156115e5573d5f803e3d5ffd5b505050506040513d601f19601f820116820180604052508101906116099190612478565b8154604051630f8e573b60e21b8152600481018390523360248201529193506001600160a01b031690633e395cec906044015f604051808303815f87803b158015611652575f80fd5b505af1158015611664573d5f803e3d5ffd5b50505050509392505050565b7f9e7b61f58c47dc699ac88507c4f5bb9f121c03808c5676a8078fe583e46497008054604051635ca4b5b160e11b8152600481018590526001600160a01b0384811660248301529091169063b9496b62906044015b5f604051808303815f87803b1580156116dc575f80fd5b505af11580156116ee573d5f803e3d5ffd5b50505050505050565b6040805160018082528183019092527f9e7b61f58c47dc699ac88507c4f5bb9f121c03808c5676a8078fe583e4649700915f91906020808301908036833701905050905082815f8151811061174e5761174e612405565b60209081029190910101528154604051637d6e912360e11b81526001600160a01b039091169063fadd2246906116c59084906004016124c9565b5f8181527f878245876662ba28a480c5ea71726db859fb50222b0a3d7cbbc21cfa336faf0160205260408120546060917f878245876662ba28a480c5ea71726db859fb50222b0a3d7cbbc21cfa336faf009190036117f95760405163d66ca67560e01b815260040160405180910390fd5b5f8381526001820160209081526040918290208054835181840281018401909452808452909183018282801561184c57602002820191905f5260205f20905b815481526020019060010190808311611838575b5050505050915050919050565b5f80835160206118699190612287565b611874906020612287565b90505f848260405160200161188a9291906124db565b60405160208183030381529060405290505f6118c37f9e7b61f58c47dc699ac88507c4f5bb9f121c03808c5676a8078fe583e464970090565b60038101546040516378542ead60e01b81529192506001600160a01b0316906378542ead906118fa908a9086908a906004016124fc565b6020604051808303815f875af1158015611916573d5f803e3d5ffd5b505050506040513d601f19601f8201168201806040525081019061193a9190612534565b979650505050505050565b7f878245876662ba28a480c5ea71726db859fb50222b0a3d7cbbc21cfa336faf0080547f9e7b61f58c47dc699ac88507c4f5bb9f121c03808c5676a8078fe583e46497008054604051637d6e912360e11b81529293926001600160a01b039091169063fadd2246906119bb9089906004016124c9565b5f604051808303815f87803b1580156119d2575f80fd5b505af11580156119e4573d5f803e3d5ffd5b5050506002820154604051633263b83b60e01b81526001600160a01b039091169150633263b83b908690611a209087908b908b90600401612553565b5f604051808303818588803b158015611a37575f80fd5b505af1158015611a49573d5f803e3d5ffd5b5050505050611a588387611c85565b8154825f611a6583612584565b919050555050509392505050565b7f9e7b61f58c47dc699ac88507c4f5bb9f121c03808c5676a8078fe583e4649701546040516307227b9160e21b81525f917f9e7b61f58c47dc699ac88507c4f5bb9f121c03808c5676a8078fe583e4649700916001600160a01b0390911690631c89ee4490611ae8908790879060040161259c565b6020604051808303815f875af1158015611b04573d5f803e3d5ffd5b505050506040513d601f19601f82011682018060405250810190611b289190612478565b949350505050565b7f9e7b61f58c47dc699ac88507c4f5bb9f121c03808c5676a8078fe583e464970154604051639cd07acb60e01b81525f917f9e7b61f58c47dc699ac88507c4f5bb9f121c03808c5676a8078fe583e4649700916001600160a01b0390911690639cd07acb90611ae8908790879060040161259c565b5f808215611bb85750600160f81b611bbb565b505f5b5f7f9e7b61f58c47dc699ac88507c4f5bb9f121c03808c5676a8078fe583e4649700600181015460405163022f65e760e31b815260048101899052602481018890527fff00000000000000000000000000000000000000000000000000000000000000851660448201529192506001600160a01b03169063117b2f38906064016020604051808303815f875af1158015611c57573d5f803e3d5ffd5b505050506040513d601f19601f82011682018060405250810190611c7b9190612478565b9695505050505050565b5f8281527f878245876662ba28a480c5ea71726db859fb50222b0a3d7cbbc21cfa336faf0160205260409020547f878245876662ba28a480c5ea71726db859fb50222b0a3d7cbbc21cfa336faf009015611cf257604051633f06d22b60e01b815260040160405180910390fd5b5f83815260018201602090815260409091208351611d1292850190611d18565b50505050565b828054828255905f5260205f20908101928215611d51579160200282015b82811115611d51578251825591602001919060010190611d36565b506114629291505b80821115611462575f8155600101611d59565b634e487b7160e01b5f52604160045260245ffd5b5f82601f830112611d8f575f80fd5b813567ffffffffffffffff80821115611daa57611daa611d6c565b604051601f8301601f19908116603f01168101908282118183101715611dd257611dd2611d6c565b81604052838152866020858801011115611dea575f80fd5b836020870160208301375f602085830101528094505050505092915050565b5f8083601f840112611e19575f80fd5b50813567ffffffffffffffff811115611e30575f80fd5b602083019150836020828501011115611e47575f80fd5b9250929050565b5f805f805f60808688031215611e62575f80fd5b853567ffffffffffffffff80821115611e79575f80fd5b611e8589838a01611d80565b96506020880135915080821115611e9a575f80fd5b611ea689838a01611d80565b9550604088013594506060880135915080821115611ec2575f80fd5b50611ecf88828901611e09565b969995985093965092949392505050565b80356001600160a01b0381168114611ef6575f80fd5b919050565b5f8060408385031215611f0c575f80fd5b823567ffffffffffffffff811115611f22575f80fd5b611f2e85828601611d80565b925050611f3d60208401611ee0565b90509250929050565b5f5b83811015611f60578181015183820152602001611f48565b50505f910152565b5f8151808452611f7f816020860160208601611f46565b601f01601f19169290920160200192915050565b602081525f825160806020840152611fae60a0840182611f68565b90506001600160a01b0360208501511660408401526040840151601f19848303016060850152611fde8282611f68565b915050606084015160808401528091505092915050565b5f8060408385031215612006575f80fd5b61200f83611ee0565b9150602083013567ffffffffffffffff81111561202a575f80fd5b61203685828601611d80565b9150509250929050565b608081525f6120526080830187611f68565b6001600160a01b038616602084015282810360408401526120738186611f68565b91505082606083015295945050505050565b838152606060208201525f61209d6060830185611f68565b90508215156040830152949350505050565b602081525f6114506020830184611f68565b5f602082840312156120d1575f80fd5b61145082611ee0565b60208152815160208201525f6020830151606060408401526120ff6080840182611f68565b90506040840151151560608401528091505092915050565b5f60208284031215612127575f80fd5b813567ffffffffffffffff81111561213d575f80fd5b611b2884828501611d80565b5f805f6060848603121561215b575f80fd5b83359250602084013567ffffffffffffffff80821115612179575f80fd5b61218587838801611d80565b9350604086013591508082111561219a575f80fd5b506121a786828701611d80565b9150509250925092565b5f805f805f805f60a0888a0312156121c7575f80fd5b6121d088611ee0565b9650602088013567ffffffffffffffff808211156121ec575f80fd5b6121f88b838c01611d80565b975060408a0135965060608a0135915080821115612214575f80fd5b6122208b838c01611e09565b909650945060808a0135915080821115612238575f80fd5b506122458a828b01611e09565b989b979a50959850939692959293505050565b5f8251612269818460208701611f46565b9190910192915050565b634e487b7160e01b5f52601160045260245ffd5b8082018082111561078657610786612273565b600181811c908216806122ae57607f821691505b6020821081036122cc57634e487b7160e01b5f52602260045260245ffd5b50919050565b601f82111561231957805f5260205f20601f840160051c810160208510156122f75750805b601f840160051c820191505b81811015612316575f8155600101612303565b50505b505050565b815167ffffffffffffffff81111561233857612338611d6c565b61234c81612346845461229a565b846122d2565b602080601f83116001811461237f575f84156123685750858301515b5f19600386901b1c1916600185901b1785556123d6565b5f85815260208120601f198616915b828110156123ad5788860151825594840194600190910190840161238e565b50858210156123ca57878501515f19600388901b60f8161c191681555b505060018460011b0185555b505050505050565b5f602082840312156123ee575f80fd5b815167ffffffffffffffff81168114611450575f80fd5b634e487b7160e01b5f52603260045260245ffd5b6054811061243557634e487b7160e01b5f52602160045260245ffd5b9052565b8481526001600160a01b0384166020820152608060408201525f6124606080830185611f68565b905061246f6060830184612419565b95945050505050565b5f60208284031215612488575f80fd5b5051919050565b5f815180845260208085019450602084015f5b838110156124be578151875295820195908201906001016124a2565b509495945050505050565b602081525f611450602083018461248f565b5f83516124ec818460208801611f46565b9190910191825250602001919050565b606081525f61250e606083018661248f565b82810360208401526125208186611f68565b90508281036040840152611c7b8185611f68565b5f60208284031215612544575f80fd5b81518015158114611450575f80fd5b838152606060208201525f61256b606083018561248f565b905063ffffffff60e01b83166040830152949350505050565b5f6001820161259557612595612273565b5060010190565b82815260408101611450602083018461241956fea164736f6c6343000818000a",
  "linkReferences": {},
  "deployedLinkReferences": {}
}