{
  "_format": "hh-sol-artifact-1",
  "contractName": "TravelTrust",
  "sourceName": "contracts/TravelTrust.sol",
  "abi": [
    {
      "inputs": [],
      "name": "makePublic",
      "outputs": [],
      "stateMutability": "nonpayable",
      "type": "function"
    },
    {
      "inputs": [
        {
          "internalType": "euint64",
          "name": "value",
          "type": "bytes32"
        }
      ],
      "name": "setSecret",
      "outputs": [],
      "stateMutability": "nonpayable",
      "type": "function"
    }
  ],
  "bytecode": "0x6080604052348015600e575f5ffd5b506101b48061001c5f395ff3fe608060405234801561000f575f5ffd5b5060043610610034575f3560e01c806335a9c82f14610038578063fc018c051461004c575b5f5ffd5b61004a61004636600461013a565b5f55565b005b61004a6100595f5461005c565b50565b5f6100668261006a565b5090565b6040805160018082528183019092527f9e7b61f58c47dc699ac88507c4f5bb9f121c03808c5676a8078fe583e4649700915f91906020808301908036833701905050905082815f815181106100c1576100c1610151565b60209081029190910101528154604051637d6e912360e11b815273ffffffffffffffffffffffffffffffffffffffff9091169063fadd224690610108908490600401610165565b5f604051808303815f87803b15801561011f575f5ffd5b505af1158015610131573d5f5f3e3d5ffd5b50505050505050565b5f6020828403121561014a575f5ffd5b5035919050565b634e487b7160e01b5f52603260045260245ffd5b602080825282518282018190525f918401906040840190835b8181101561019c57835183526020938401939092019160010161017e565b50909594505050505056fea164736f6c634300081b000a",
  "linkReferences": {},
  "deployedLinkReferences": {}
}