{
  "_format": "hh-sol-artifact-1",
  "contractName": "TravelTrust",
  "sourceName": "contracts/TravelTrust.sol",
  "abi": [
    {
      "inputs": [],
      "stateMutability": "nonpayable",
      "type": "constructor"
    },
    {
      "anonymous": false,
      "inputs": [
        {
          "indexed": true,
          "internalType": "address",
          "name": "reviewer",
          "type": "address"
        },
        {
          "indexed": true,
          "internalType": "string",
          "name": "serviceId",
          "type": "string"
        }
      ],
      "name": "ReviewSubmitted",
      "type": "event"
    },
    {
      "anonymous": false,
      "inputs": [
        {
          "indexed": true,
          "internalType": "string",
          "name": "serviceId",
          "type": "string"
        },
        {
          "indexed": false,
          "internalType": "string",
          "name": "name",
          "type": "string"
        },
        {
          "indexed": true,
          "internalType": "address",
          "name": "owner",
          "type": "address"
        }
      ],
      "name": "ServiceAdded",
      "type": "event"
    },
    {
      "inputs": [
        {
          "internalType": "string",
          "name": "serviceId",
          "type": "string"
        },
        {
          "internalType": "string",
          "name": "name",
          "type": "string"
        },
        {
          "internalType": "externalEuint64",
          "name": "encryptedPrice",
          "type": "bytes32"
        },
        {
          "internalType": "bytes",
          "name": "inputProof",
          "type": "bytes"
        }
      ],
      "name": "addService",
      "outputs": [],
      "stateMutability": "nonpayable",
      "type": "function"
    },
    {
      "inputs": [
        {
          "internalType": "string",
          "name": "serviceId",
          "type": "string"
        },
        {
          "internalType": "address",
          "name": "reviewer",
          "type": "address"
        }
      ],
      "name": "getReview",
      "outputs": [
        {
          "components": [
            {
              "internalType": "euint8",
              "name": "rating",
              "type": "bytes32"
            },
            {
              "internalType": "string",
              "name": "comment",
              "type": "string"
            },
            {
              "internalType": "bool",
              "name": "exists",
              "type": "bool"
            }
          ],
          "internalType": "struct TravelTrust.Review",
          "name": "",
          "type": "tuple"
        }
      ],
      "stateMutability": "view",
      "type": "function"
    },
    {
      "inputs": [
        {
          "internalType": "string",
          "name": "serviceId",
          "type": "string"
        },
        {
          "internalType": "address",
          "name": "sOwner",
          "type": "address"
        }
      ],
      "name": "getService",
      "outputs": [
        {
          "components": [
            {
              "internalType": "string",
              "name": "id",
              "type": "string"
            },
            {
              "internalType": "address",
              "name": "owner",
              "type": "address"
            },
            {
              "internalType": "string",
              "name": "name",
              "type": "string"
            },
            {
              "internalType": "euint64",
              "name": "price",
              "type": "bytes32"
            }
          ],
          "internalType": "struct TravelTrust.Service",
          "name": "",
          "type": "tuple"
        }
      ],
      "stateMutability": "view",
      "type": "function"
    },
    {
      "inputs": [],
      "name": "owner",
      "outputs": [
        {
          "internalType": "address",
          "name": "",
          "type": "address"
        }
      ],
      "stateMutability": "view",
      "type": "function"
    },
    {
      "inputs": [],
      "name": "ping",
      "outputs": [
        {
          "internalType": "string",
          "name": "",
          "type": "string"
        }
      ],
      "stateMutability": "view",
      "type": "function"
    },
    {
      "inputs": [],
      "name": "protocolId",
      "outputs": [
        {
          "internalType": "uint256",
          "name": "",
          "type": "uint256"
        }
      ],
      "stateMutability": "pure",
      "type": "function"
    },
    {
      "inputs": [
        {
          "internalType": "string",
          "name": "",
          "type": "string"
        },
        {
          "internalType": "address",
          "name": "",
          "type": "address"
        }
      ],
      "name": "reviews",
      "outputs": [
        {
          "internalType": "euint8",
          "name": "rating",
          "type": "bytes32"
        },
        {
          "internalType": "string",
          "name": "comment",
          "type": "string"
        },
        {
          "internalType": "bool",
          "name": "exists",
          "type": "bool"
        }
      ],
      "stateMutability": "view",
      "type": "function"
    },
    {
      "inputs": [
        {
          "internalType": "string",
          "name": "",
          "type": "string"
        }
      ],
      "name": "serviceStats",
      "outputs": [
        {
          "internalType": "euint32",
          "name": "totalSum",
          "type": "bytes32"
        },
        {
          "internalType": "euint32",
          "name": "totalCount",
          "type": "bytes32"
        }
      ],
      "stateMutability": "view",
      "type": "function"
    },
    {
      "inputs": [
        {
          "internalType": "address",
          "name": "",
          "type": "address"
        },
        {
          "internalType": "string",
          "name": "",
          "type": "string"
        }
      ],
      "name": "services",
      "outputs": [
        {
          "internalType": "string",
          "name": "id",
          "type": "string"
        },
        {
          "internalType": "address",
          "name": "owner",
          "type": "address"
        },
        {
          "internalType": "string",
          "name": "name",
          "type": "string"
        },
        {
          "internalType": "euint64",
          "name": "price",
          "type": "bytes32"
        }
      ],
      "stateMutability": "view",
      "type": "function"
    },
    {
      "inputs": [
        {
          "internalType": "address",
          "name": "serviceOwner",
          "type": "address"
        },
        {
          "internalType": "string",
          "name": "serviceId",
          "type": "string"
        },
        {
          "internalType": "externalEuint8",
          "name": "encryptedRating",
          "type": "bytes32"
        },
        {
          "internalType": "bytes",
          "name": "inputProof",
          "type": "bytes"
        },
        {
          "internalType": "string",
          "name": "comment",
          "type": "string"
        }
      ],
      "name": "submitReview",
      "outputs": [],
      "stateMutability": "nonpayable",
      "type": "function"
    },
    {
      "stateMutability": "payable",
      "type": "receive"
    }
  ],
  "bytecode": "0x608060405234801561000f575f80fd5b5061018a6100ae604080516080810182525f808252602082018190529181018290526060810191909152506040805160808101825273687820221192c5b662b25367f70076a37bc79b6c815273848b0066793bcc60346da1f49049357399b8d595602082015273a02cda4ca3a71d7c46997716f4283aa851c2881291810191909152731364cbbf2cdf5032c47d8226a6f6fbd2afcdacac606082015290565b80517f9e7b61f58c47dc699ac88507c4f5bb9f121c03808c5676a8078fe583e464970080546001600160a01b03199081166001600160a01b039384161790915560208301517f9e7b61f58c47dc699ac88507c4f5bb9f121c03808c5676a8078fe583e46497018054831691841691909117905560408301517f9e7b61f58c47dc699ac88507c4f5bb9f121c03808c5676a8078fe583e46497028054831691841691909117905560608301517f9e7b61f58c47dc699ac88507c4f5bb9f121c03808c5676a8078fe583e46497038054909216921691909117905550565b5f80546001600160a01b031916331790556118c7806101a85f395ff3fe6080604052600436106100b0575f3560e01c80638249be8c116100665780638da5cb5b1161004c5780638da5cb5b1461020e578063da1f12ab14610244578063ee07a8bd14610260575f80fd5b80638249be8c1461018f5780638882ea90146101bb575f80fd5b80634c85bd65116100965780634c85bd6514610111578063519fbef6146101405780635c36b1861461016e575f80fd5b806325327eb6146100bb5780632fb85dc0146100dc575f80fd5b366100b757005b5f80fd5b3480156100c6575f80fd5b506100da6100d53660046112f1565b61027f565b005b3480156100e7575f80fd5b506100fb6100f636600461139e565b610472565b6040516101089190611436565b60405180910390f35b34801561011c575f80fd5b5061013061012b366004611498565b6106aa565b60405161010894939291906114e3565b34801561014b575f80fd5b5061015f61015a36600461139e565b610808565b60405161010893929190611528565b348015610179575f80fd5b506101826108ce565b6040516101089190611552565b34801561019a575f80fd5b506101ae6101a936600461139e565b610949565b6040516101089190611564565b3480156101c6575f80fd5b506101f96101d53660046115a1565b80516020818301810180516003825292820191909301209152805460019091015482565b60408051928352602083019190915201610108565b348015610219575f80fd5b505f5461022c906001600160a01b031681565b6040516001600160a01b039091168152602001610108565b34801561024f575f80fd5b506040516127118152602001610108565b34801561026b575f80fd5b506100da61027a3660046115d3565b610a50565b335f90815260016020526040808220905161029b90889061167a565b908152604051908190036020019020600101546001600160a01b0316146103095760405162461bcd60e51b815260206004820152601660248201527f5365727669636520616c7265616479206578697374730000000000000000000060448201526064015b60405180910390fd5b5f6103498484848080601f0160208091040260200160405190810160405280939291908181526020018383808284375f92019190915250610d2792505050565b905061035481610d3b565b5060408051608081018252878152336020808301829052828401899052606083018590525f91825260019052829020915190919061039390899061167a565b908152604051908190036020019020815181906103b09082611719565b5060208201516001820180547fffffffffffffffffffffffff0000000000000000000000000000000000000000166001600160a01b03909216919091179055604082015160028201906104039082611719565b506060820151816003015590505061041a81610d4a565b50604051339061042b90889061167a565b60405180910390207fc8e986456ded3f882a86389a6212fd7c3ad7a8f83a0a2e4782915b85313a6a00876040516104629190611552565b60405180910390a3505050505050565b6040805160808101825260608082525f602083018190529282018190528101919091526001600160a01b0382165f9081526001602052604080822090516104ba90869061167a565b908152604051908190036020019020600101546001600160a01b0316036105235760405162461bcd60e51b815260206004820152601160248201527f53657276696365206e6f7420666f756e640000000000000000000000000000006044820152606401610300565b6001600160a01b0382165f9081526001602052604090819020905161054990859061167a565b90815260200160405180910390206040518060800160405290815f8201805461057190611695565b80601f016020809104026020016040519081016040528092919081815260200182805461059d90611695565b80156105e85780601f106105bf576101008083540402835291602001916105e8565b820191905f5260205f20905b8154815290600101906020018083116105cb57829003601f168201915b505050918352505060018201546001600160a01b0316602082015260028201805460409092019161061890611695565b80601f016020809104026020016040519081016040528092919081815260200182805461064490611695565b801561068f5780601f106106665761010080835404028352916020019161068f565b820191905f5260205f20905b81548152906001019060200180831161067257829003601f168201915b50505050508152602001600382015481525050905092915050565b600160209081525f928352604090922081518083018401805192815290840192909301919091209152805481906106e090611695565b80601f016020809104026020016040519081016040528092919081815260200182805461070c90611695565b80156107575780601f1061072e57610100808354040283529160200191610757565b820191905f5260205f20905b81548152906001019060200180831161073a57829003601f168201915b505050600184015460028501805494956001600160a01b0390921694919350915061078190611695565b80601f01602080910402602001604051908101604052809291908181526020018280546107ad90611695565b80156107f85780601f106107cf576101008083540402835291602001916107f8565b820191905f5260205f20905b8154815290600101906020018083116107db57829003601f168201915b5050505050908060030154905084565b81516020818401810180516002825292820194820194909420919093529091525f90815260409020805460018201805491929161084490611695565b80601f016020809104026020016040519081016040528092919081815260200182805461087090611695565b80156108bb5780601f10610892576101008083540402835291602001916108bb565b820191905f5260205f20905b81548152906001019060200180831161089e57829003601f168201915b5050506002909301549192505060ff1683565b5f546060906001600160a01b0316331461092a5760405162461bcd60e51b815260206004820152601460248201527f4f6e6c79206f776e65722063616e2063616c6c2e0000000000000000000000006044820152606401610300565b50604080518082019091526004815263706f6e6760e01b602082015290565b60408051606080820183525f808352602083019190915281830152905160029061097490859061167a565b9081526040805191829003602090810183206001600160a01b0386165f9081529082528290206060840190925281548352600182018054918401916109b890611695565b80601f01602080910402602001604051908101604052809291908181526020018280546109e490611695565b8015610a2f5780601f10610a0657610100808354040283529160200191610a2f565b820191905f5260205f20905b815481529060010190602001808311610a1257829003601f168201915b50505091835250506002919091015460ff1615156020909101529392505050565b6001600160a01b0387165f908152600160205260408082209051610a7590899061167a565b90815260405190819003602001902060018101549091506001600160a01b0316610ae15760405162461bcd60e51b815260206004820152601160248201527f53657276696365206e6f7420666f756e640000000000000000000000000000006044820152606401610300565b600287604051610af1919061167a565b9081526040805160209281900383019020335f908152925290206002015460ff1615610b5f5760405162461bcd60e51b815260206004820152601860248201527f52657669657720616c7265616479207375626d697474656400000000000000006044820152606401610300565b5f610b9f8787878080601f0160208091040260200160405190810160405280939291908181526020018383808284375f92019190915250610d5492505050565b9050610bab8133610d61565b50610bb581610d3b565b505f610bc082610d73565b90505f610bcd6001610d85565b90505f60038b604051610be0919061167a565b90815260200160405180910390209050610bfd815f015484610d97565b81556001810154610c0e9083610d97565b60018201558054610c1e90610d3b565b50610c2c8160010154610d3b565b50604051806060016040528085815260200188888080601f0160208091040260200160405190810160405280939291908181526020018383808284375f920191909152505050908252506001602090910152604051600290610c8f908e9061167a565b9081526040805160209281900383019020335f9081529083522082518155908201516001820190610cc09082611719565b50604091820151600291909101805460ff191691151591909117905551610ce8908c9061167a565b6040519081900381209033907f0ef4f9d8b93ff55ce14b593552db0c227199edf3015c06d33c327a710aa2b480905f90a3505050505050505050505050565b5f610d3483836005610dc5565b9392505050565b5f610d468230610ee5565b5090565b5f610d4682610f6c565b5f610d3483836002610dc5565b5f610d6c8383610ee5565b5090919050565b5f610d7f826004610ffd565b92915050565b5f610d7f8263ffffffff1660046110ba565b5f82610da957610da65f610d85565b92505b81610dba57610db75f610d85565b91505b610d3483835f61112f565b7f9e7b61f58c47dc699ac88507c4f5bb9f121c03808c5676a8078fe583e46497015460405163196d0b9b60e01b81525f917f9e7b61f58c47dc699ac88507c4f5bb9f121c03808c5676a8078fe583e4649700916001600160a01b039091169063196d0b9b90610e3e9088903390899089906004016117f9565b6020604051808303815f875af1158015610e5a573d5f803e3d5ffd5b505050506040513d601f19601f82011682018060405250810190610e7e9190611838565b8154604051630f8e573b60e21b8152600481018390523360248201529193506001600160a01b031690633e395cec906044015f604051808303815f87803b158015610ec7575f80fd5b505af1158015610ed9573d5f803e3d5ffd5b50505050509392505050565b7f9e7b61f58c47dc699ac88507c4f5bb9f121c03808c5676a8078fe583e46497008054604051635ca4b5b160e11b8152600481018590526001600160a01b0384811660248301529091169063b9496b62906044015b5f604051808303815f87803b158015610f51575f80fd5b505af1158015610f63573d5f803e3d5ffd5b50505050505050565b6040805160018082528183019092527f9e7b61f58c47dc699ac88507c4f5bb9f121c03808c5676a8078fe583e4649700915f91906020808301908036833701905050905082815f81518110610fc357610fc361184f565b60209081029190910101528154604051637d6e912360e11b81526001600160a01b039091169063fadd224690610f3a908490600401611863565b7f9e7b61f58c47dc699ac88507c4f5bb9f121c03808c5676a8078fe583e4649701546040516307227b9160e21b81525f917f9e7b61f58c47dc699ac88507c4f5bb9f121c03808c5676a8078fe583e4649700916001600160a01b0390911690631c89ee449061107290879087906004016118a6565b6020604051808303815f875af115801561108e573d5f803e3d5ffd5b505050506040513d601f19601f820116820180604052508101906110b29190611838565b949350505050565b7f9e7b61f58c47dc699ac88507c4f5bb9f121c03808c5676a8078fe583e464970154604051639cd07acb60e01b81525f917f9e7b61f58c47dc699ac88507c4f5bb9f121c03808c5676a8078fe583e4649700916001600160a01b0390911690639cd07acb9061107290879087906004016118a6565b5f8082156111425750600160f81b611145565b505f5b5f7f9e7b61f58c47dc699ac88507c4f5bb9f121c03808c5676a8078fe583e4649700600181015460405163022f65e760e31b815260048101899052602481018890527fff00000000000000000000000000000000000000000000000000000000000000851660448201529192506001600160a01b03169063117b2f38906064016020604051808303815f875af11580156111e1573d5f803e3d5ffd5b505050506040513d601f19601f820116820180604052508101906112059190611838565b9695505050505050565b634e487b7160e01b5f52604160045260245ffd5b5f82601f830112611232575f80fd5b813567ffffffffffffffff8082111561124d5761124d61120f565b604051601f8301601f19908116603f011681019082821181831017156112755761127561120f565b8160405283815286602085880101111561128d575f80fd5b836020870160208301375f602085830101528094505050505092915050565b5f8083601f8401126112bc575f80fd5b50813567ffffffffffffffff8111156112d3575f80fd5b6020830191508360208285010111156112ea575f80fd5b9250929050565b5f805f805f60808688031215611305575f80fd5b853567ffffffffffffffff8082111561131c575f80fd5b61132889838a01611223565b9650602088013591508082111561133d575f80fd5b61134989838a01611223565b9550604088013594506060880135915080821115611365575f80fd5b50611372888289016112ac565b969995985093965092949392505050565b80356001600160a01b0381168114611399575f80fd5b919050565b5f80604083850312156113af575f80fd5b823567ffffffffffffffff8111156113c5575f80fd5b6113d185828601611223565b9250506113e060208401611383565b90509250929050565b5f5b838110156114035781810151838201526020016113eb565b50505f910152565b5f81518084526114228160208601602086016113e9565b601f01601f19169290920160200192915050565b602081525f82516080602084015261145160a084018261140b565b90506001600160a01b0360208501511660408401526040840151601f19848303016060850152611481828261140b565b915050606084015160808401528091505092915050565b5f80604083850312156114a9575f80fd5b6114b283611383565b9150602083013567ffffffffffffffff8111156114cd575f80fd5b6114d985828601611223565b9150509250929050565b608081525f6114f5608083018761140b565b6001600160a01b03861660208401528281036040840152611516818661140b565b91505082606083015295945050505050565b838152606060208201525f611540606083018561140b565b90508215156040830152949350505050565b602081525f610d34602083018461140b565b60208152815160208201525f602083015160606040840152611589608084018261140b565b90506040840151151560608401528091505092915050565b5f602082840312156115b1575f80fd5b813567ffffffffffffffff8111156115c7575f80fd5b6110b284828501611223565b5f805f805f805f60a0888a0312156115e9575f80fd5b6115f288611383565b9650602088013567ffffffffffffffff8082111561160e575f80fd5b61161a8b838c01611223565b975060408a0135965060608a0135915080821115611636575f80fd5b6116428b838c016112ac565b909650945060808a013591508082111561165a575f80fd5b506116678a828b016112ac565b989b979a50959850939692959293505050565b5f825161168b8184602087016113e9565b9190910192915050565b600181811c908216806116a957607f821691505b6020821081036116c757634e487b7160e01b5f52602260045260245ffd5b50919050565b601f82111561171457805f5260205f20601f840160051c810160208510156116f25750805b601f840160051c820191505b81811015611711575f81556001016116fe565b50505b505050565b815167ffffffffffffffff8111156117335761173361120f565b611747816117418454611695565b846116cd565b602080601f83116001811461177a575f84156117635750858301515b5f19600386901b1c1916600185901b1785556117d1565b5f85815260208120601f198616915b828110156117a857888601518255948401946001909101908401611789565b50858210156117c557878501515f19600388901b60f8161c191681555b505060018460011b0185555b505050505050565b605481106117f557634e487b7160e01b5f52602160045260245ffd5b9052565b8481526001600160a01b0384166020820152608060408201525f611820608083018561140b565b905061182f60608301846117d9565b95945050505050565b5f60208284031215611848575f80fd5b5051919050565b634e487b7160e01b5f52603260045260245ffd5b602080825282518282018190525f9190848201906040850190845b8181101561189a5783518352928401929184019160010161187e565b50909695505050505050565b82815260408101610d3460208301846117d956fea164736f6c6343000818000a",
  "linkReferences": {},
  "deployedLinkReferences": {}
}