{
  "_format": "hh-sol-artifact-1",
  "contractName": "TravelTrust",
  "sourceName": "contracts/TravelTrust.sol",
  "abi": [
    {
      "inputs": [],
      "stateMutability": "nonpayable",
      "type": "constructor"
    },
    {
      "inputs": [],
      "name": "HandlesAlreadySavedForRequestID",
      "type": "error"
    },
    {
      "inputs": [],
      "name": "InvalidKMSSignatures",
      "type": "error"
    },
    {
      "inputs": [],
      "name": "NoHandleFoundForRequestID",
      "type": "error"
    },
    {
      "anonymous": false,
      "inputs": [
        {
          "indexed": true,
          "internalType": "uint256",
          "name": "requestID",
          "type": "uint256"
        }
      ],
      "name": "DecryptionFulfilled",
      "type": "event"
    },
    {
      "anonymous": false,
      "inputs": [
        {
          "indexed": true,
          "internalType": "address",
          "name": "reviewer",
          "type": "address"
        },
        {
          "indexed": true,
          "internalType": "string",
          "name": "serviceId",
          "type": "string"
        }
      ],
      "name": "ReviewSubmitted",
      "type": "event"
    },
    {
      "anonymous": false,
      "inputs": [
        {
          "indexed": true,
          "internalType": "string",
          "name": "serviceId",
          "type": "string"
        },
        {
          "indexed": false,
          "internalType": "string",
          "name": "name",
          "type": "string"
        },
        {
          "indexed": true,
          "internalType": "address",
          "name": "owner",
          "type": "address"
        }
      ],
      "name": "ServiceAdded",
      "type": "event"
    },
    {
      "anonymous": false,
      "inputs": [
        {
          "indexed": false,
          "internalType": "uint256",
          "name": "requestId",
          "type": "uint256"
        },
        {
          "indexed": false,
          "internalType": "string",
          "name": "serviceId",
          "type": "string"
        }
      ],
      "name": "ServiceDecryptionRequested",
      "type": "event"
    },
    {
      "anonymous": false,
      "inputs": [
        {
          "indexed": true,
          "internalType": "address",
          "name": "to",
          "type": "address"
        },
        {
          "indexed": false,
          "internalType": "uint256",
          "name": "amount",
          "type": "uint256"
        }
      ],
      "name": "ServiceFeesWithdrawn",
      "type": "event"
    },
    {
      "anonymous": false,
      "inputs": [
        {
          "indexed": true,
          "internalType": "address",
          "name": "buyer",
          "type": "address"
        },
        {
          "indexed": true,
          "internalType": "address",
          "name": "serviceOwner",
          "type": "address"
        },
        {
          "indexed": true,
          "internalType": "string",
          "name": "serviceId",
          "type": "string"
        }
      ],
      "name": "ServicePaid",
      "type": "event"
    },
    {
      "inputs": [
        {
          "internalType": "string",
          "name": "serviceId",
          "type": "string"
        },
        {
          "internalType": "string",
          "name": "name",
          "type": "string"
        },
        {
          "internalType": "externalEuint64",
          "name": "encryptedPrice",
          "type": "bytes32"
        },
        {
          "internalType": "bytes",
          "name": "inputProof",
          "type": "bytes"
        }
      ],
      "name": "addService",
      "outputs": [],
      "stateMutability": "payable",
      "type": "function"
    },
    {
      "inputs": [
        {
          "internalType": "string",
          "name": "serviceId",
          "type": "string"
        },
        {
          "internalType": "address",
          "name": "reviewer",
          "type": "address"
        }
      ],
      "name": "getReview",
      "outputs": [
        {
          "components": [
            {
              "internalType": "euint8",
              "name": "rating",
              "type": "bytes32"
            },
            {
              "internalType": "string",
              "name": "comment",
              "type": "string"
            },
            {
              "internalType": "bool",
              "name": "exists",
              "type": "bool"
            }
          ],
          "internalType": "struct TravelTrust.Review",
          "name": "",
          "type": "tuple"
        }
      ],
      "stateMutability": "view",
      "type": "function"
    },
    {
      "inputs": [
        {
          "internalType": "string",
          "name": "serviceId",
          "type": "string"
        },
        {
          "internalType": "address",
          "name": "sOwner",
          "type": "address"
        }
      ],
      "name": "getService",
      "outputs": [
        {
          "components": [
            {
              "internalType": "string",
              "name": "id",
              "type": "string"
            },
            {
              "internalType": "address",
              "name": "owner",
              "type": "address"
            },
            {
              "internalType": "string",
              "name": "name",
              "type": "string"
            },
            {
              "internalType": "euint64",
              "name": "price",
              "type": "bytes32"
            }
          ],
          "internalType": "struct TravelTrust.Service",
          "name": "",
          "type": "tuple"
        }
      ],
      "stateMutability": "view",
      "type": "function"
    },
    {
      "inputs": [
        {
          "internalType": "string",
          "name": "",
          "type": "string"
        },
        {
          "internalType": "address",
          "name": "",
          "type": "address"
        }
      ],
      "name": "hasPaymented",
      "outputs": [
        {
          "internalType": "bool",
          "name": "",
          "type": "bool"
        }
      ],
      "stateMutability": "view",
      "type": "function"
    },
    {
      "inputs": [],
      "name": "owner",
      "outputs": [
        {
          "internalType": "address",
          "name": "",
          "type": "address"
        }
      ],
      "stateMutability": "view",
      "type": "function"
    },
    {
      "inputs": [
        {
          "internalType": "uint256",
          "name": "",
          "type": "uint256"
        }
      ],
      "name": "pendingRequests",
      "outputs": [
        {
          "internalType": "address",
          "name": "buyer",
          "type": "address"
        },
        {
          "internalType": "address",
          "name": "serviceOwner",
          "type": "address"
        },
        {
          "internalType": "string",
          "name": "serviceId",
          "type": "string"
        },
        {
          "internalType": "uint256",
          "name": "paidAmount",
          "type": "uint256"
        }
      ],
      "stateMutability": "view",
      "type": "function"
    },
    {
      "inputs": [],
      "name": "ping",
      "outputs": [
        {
          "internalType": "string",
          "name": "",
          "type": "string"
        }
      ],
      "stateMutability": "view",
      "type": "function"
    },
    {
      "inputs": [
        {
          "internalType": "uint256",
          "name": "requestId",
          "type": "uint256"
        },
        {
          "internalType": "bytes",
          "name": "cleartexts",
          "type": "bytes"
        },
        {
          "internalType": "bytes",
          "name": "decryptionProof",
          "type": "bytes"
        }
      ],
      "name": "priceDycryptCallback",
      "outputs": [],
      "stateMutability": "payable",
      "type": "function"
    },
    {
      "inputs": [],
      "name": "protocolId",
      "outputs": [
        {
          "internalType": "uint256",
          "name": "",
          "type": "uint256"
        }
      ],
      "stateMutability": "pure",
      "type": "function"
    },
    {
      "inputs": [
        {
          "internalType": "string",
          "name": "",
          "type": "string"
        },
        {
          "internalType": "address",
          "name": "",
          "type": "address"
        }
      ],
      "name": "reviews",
      "outputs": [
        {
          "internalType": "euint8",
          "name": "rating",
          "type": "bytes32"
        },
        {
          "internalType": "string",
          "name": "comment",
          "type": "string"
        },
        {
          "internalType": "bool",
          "name": "exists",
          "type": "bool"
        }
      ],
      "stateMutability": "view",
      "type": "function"
    },
    {
      "inputs": [],
      "name": "serviceFees",
      "outputs": [
        {
          "internalType": "uint256",
          "name": "",
          "type": "uint256"
        }
      ],
      "stateMutability": "view",
      "type": "function"
    },
    {
      "inputs": [
        {
          "internalType": "address",
          "name": "serviceOwner",
          "type": "address"
        },
        {
          "internalType": "string",
          "name": "serviceId",
          "type": "string"
        }
      ],
      "name": "servicePayment",
      "outputs": [],
      "stateMutability": "payable",
      "type": "function"
    },
    {
      "inputs": [
        {
          "internalType": "string",
          "name": "",
          "type": "string"
        }
      ],
      "name": "serviceStats",
      "outputs": [
        {
          "internalType": "euint32",
          "name": "totalSum",
          "type": "bytes32"
        },
        {
          "internalType": "euint32",
          "name": "totalCount",
          "type": "bytes32"
        }
      ],
      "stateMutability": "view",
      "type": "function"
    },
    {
      "inputs": [
        {
          "internalType": "address",
          "name": "",
          "type": "address"
        },
        {
          "internalType": "string",
          "name": "",
          "type": "string"
        }
      ],
      "name": "services",
      "outputs": [
        {
          "internalType": "string",
          "name": "id",
          "type": "string"
        },
        {
          "internalType": "address",
          "name": "owner",
          "type": "address"
        },
        {
          "internalType": "string",
          "name": "name",
          "type": "string"
        },
        {
          "internalType": "euint64",
          "name": "price",
          "type": "bytes32"
        }
      ],
      "stateMutability": "view",
      "type": "function"
    },
    {
      "inputs": [
        {
          "internalType": "address",
          "name": "serviceOwner",
          "type": "address"
        },
        {
          "internalType": "string",
          "name": "serviceId",
          "type": "string"
        },
        {
          "internalType": "externalEuint8",
          "name": "encryptedRating",
          "type": "bytes32"
        },
        {
          "internalType": "bytes",
          "name": "inputProof",
          "type": "bytes"
        },
        {
          "internalType": "string",
          "name": "comment",
          "type": "string"
        }
      ],
      "name": "submitReview",
      "outputs": [],
      "stateMutability": "nonpayable",
      "type": "function"
    },
    {
      "inputs": [
        {
          "internalType": "address",
          "name": "to",
          "type": "address"
        }
      ],
      "name": "withdrawServiceFees",
      "outputs": [],
      "stateMutability": "nonpayable",
      "type": "function"
    },
    {
      "stateMutability": "payable",
      "type": "receive"
    }
  ],
  "bytecode": "0x608060405234801561000f575f80fd5b5061018a6100ae604080516080810182525f80825260208201819052918101829052606081019190915250604080516080810182527350157cffd6bbfa2dece204a89ec419c23ef5755d815273cd3ab3bd6bcc0c0bf3e27912a92043e817b1cf69602082015273a02cda4ca3a71d7c46997716f4283aa851c2881291810191909152731364cbbf2cdf5032c47d8226a6f6fbd2afcdacac606082015290565b80517f9e7b61f58c47dc699ac88507c4f5bb9f121c03808c5676a8078fe583e464970080546001600160a01b03199081166001600160a01b039384161790915560208301517f9e7b61f58c47dc699ac88507c4f5bb9f121c03808c5676a8078fe583e46497018054831691841691909117905560408301517f9e7b61f58c47dc699ac88507c4f5bb9f121c03808c5676a8078fe583e46497028054831691841691909117905560608301517f9e7b61f58c47dc699ac88507c4f5bb9f121c03808c5676a8078fe583e46497038054909216921691909117905550565b5f80546001600160a01b031916331790556127f9806101a85f395ff3fe6080604052600436106100f2575f3560e01c806380857ffa116100875780639bc4aa4c116100575780639bc4aa4c14610340578063a18084c014610353578063da1f12ab14610366578063ee07a8bd1461037a575f80fd5b806380857ffa146102685780638249be8c1461028b5780638882ea90146102b75780638da5cb5b1461030a575f80fd5b80634c85bd65116100c25780634c85bd65146101cb578063519fbef6146101fa5780635c36b1861461022857806378a1d5e214610249575f80fd5b806325327eb6146100fd57806327df7a7f146101125780632fb85dc0146101705780633c652a9a1461019c575f80fd5b366100f957005b5f80fd5b61011061010b36600461201f565b610399565b005b34801561011d575f80fd5b5061015b61012c3660046120cc565b81516020818401810180516004825292820194820194909420919093529091525f908152604090205460ff1681565b60405190151581526020015b60405180910390f35b34801561017b575f80fd5b5061018f61018a3660046120cc565b610599565b6040516101679190612164565b3480156101a7575f80fd5b506101bb6101b63660046121c6565b6107c6565b60405161016794939291906121dd565b3480156101d6575f80fd5b506101ea6101e5366004612219565b610881565b6040516101679493929190612264565b348015610205575f80fd5b506102196102143660046120cc565b610958565b604051610167939291906122a9565b348015610233575f80fd5b5061023c610a1e565b60405161016791906122d3565b348015610254575f80fd5b506101106102633660046122e5565b610a99565b348015610273575f80fd5b5061027d60065481565b604051908152602001610167565b348015610296575f80fd5b506102aa6102a53660046120cc565b610c33565b60405161016791906122fe565b3480156102c2575f80fd5b506102f56102d136600461233b565b80516020818301810180516003825292820191909301209152805460019091015482565b60408051928352602083019190915201610167565b348015610315575f80fd5b505f54610328906001600160a01b031681565b6040516001600160a01b039091168152602001610167565b61011061034e36600461236d565b610d3a565b610110610361366004612219565b611082565b348015610371575f80fd5b5061271161027d565b348015610385575f80fd5b506101106103943660046123d5565b61130e565b335f9081526001602052604080822090516103b590889061247c565b908152604051908190036020019020600101546001600160a01b0316146104235760405162461bcd60e51b815260206004820152601660248201527f5365727669636520616c7265616479206578697374730000000000000000000060448201526064015b60405180910390fd5b3460065f82825461043491906124ab565b925050819055505f61047b8484848080601f0160208091040260200160405190810160405280939291908181526020018383808284375f920191909152506115d992505050565b9050610486816115ed565b5060408051608081018252878152336020808301829052828401899052606083018590525f9182526001905282902091519091906104c590899061247c565b908152604051908190036020019020815181906104e29082612542565b50602082015160018201805473ffffffffffffffffffffffffffffffffffffffff19166001600160a01b039092169190911790556040820151600282019061052a9082612542565b5060608201518160030155905050610541816115fc565b50604051339061055290889061247c565b60405180910390207fc8e986456ded3f882a86389a6212fd7c3ad7a8f83a0a2e4782915b85313a6a008760405161058991906122d3565b60405180910390a3505050505050565b6040805160808101825260608082525f602083018190529282018190528101919091526001600160a01b0382165f9081526001602052604080822090516105e190869061247c565b908152604051908190036020019020600101546001600160a01b03160361063e5760405162461bcd60e51b815260206004820152601160248201527014d95c9d9a58d9481b9bdd08199bdd5b99607a1b604482015260640161041a565b6001600160a01b0382165f9081526001602052604090819020905161066490859061247c565b90815260200160405180910390206040518060800160405290815f8201805461068c906124be565b80601f01602080910402602001604051908101604052809291908181526020018280546106b8906124be565b80156107035780601f106106da57610100808354040283529160200191610703565b820191905f5260205f20905b8154815290600101906020018083116106e657829003601f168201915b505050918352505060018201546001600160a01b03166020820152600282018054604090920191610733906124be565b80601f016020809104026020016040519081016040528092919081815260200182805461075f906124be565b80156107aa5780601f10610781576101008083540402835291602001916107aa565b820191905f5260205f20905b81548152906001019060200180831161078d57829003601f168201915b5050505050815260200160038201548152505090505b92915050565b60056020525f90815260409020805460018201546002830180546001600160a01b039384169492909316926107fa906124be565b80601f0160208091040260200160405190810160405280929190818152602001828054610826906124be565b80156108715780601f1061084857610100808354040283529160200191610871565b820191905f5260205f20905b81548152906001019060200180831161085457829003601f168201915b5050505050908060030154905084565b600160209081525f928352604090922081518083018401805192815290840192909301919091209152805481906108b7906124be565b80601f01602080910402602001604051908101604052809291908181526020018280546108e3906124be565b801561092e5780601f106109055761010080835404028352916020019161092e565b820191905f5260205f20905b81548152906001019060200180831161091157829003601f168201915b505050600184015460028501805494956001600160a01b039092169491935091506107fa906124be565b81516020818401810180516002825292820194820194909420919093529091525f908152604090208054600182018054919291610994906124be565b80601f01602080910402602001604051908101604052809291908181526020018280546109c0906124be565b8015610a0b5780601f106109e257610100808354040283529160200191610a0b565b820191905f5260205f20905b8154815290600101906020018083116109ee57829003601f168201915b5050506002909301549192505060ff1683565b5f546060906001600160a01b03163314610a7a5760405162461bcd60e51b815260206004820152601460248201527f4f6e6c79206f776e65722063616e2063616c6c2e000000000000000000000000604482015260640161041a565b50604080518082019091526004815263706f6e6760e01b602082015290565b5f546001600160a01b03163314610af25760405162461bcd60e51b815260206004820152601460248201527f4f6e6c79206f776e65722063616e2063616c6c2e000000000000000000000000604482015260640161041a565b5f60065411610b435760405162461bcd60e51b815260206004820152601360248201527f4e6f206665657320746f20776974686472617700000000000000000000000000604482015260640161041a565b600680545f918290556040519091906001600160a01b0384169083908381818185875af1925050503d805f8114610b95576040519150601f19603f3d011682016040523d82523d5f602084013e610b9a565b606091505b5050905080610beb5760405162461bcd60e51b815260206004820152600f60248201527f5769746864726177206661696c65640000000000000000000000000000000000604482015260640161041a565b826001600160a01b03167f5dd2c31d9d2a5e0c0e2e541b1f995d773f6bc1f9243abd398748ad5ba13e64db83604051610c2691815260200190565b60405180910390a2505050565b60408051606080820183525f8083526020830191909152818301529051600290610c5e90859061247c565b9081526040805191829003602090810183206001600160a01b0386165f908152908252829020606084019092528154835260018201805491840191610ca2906124be565b80601f0160208091040260200160405190810160405280929190818152602001828054610cce906124be565b8015610d195780601f10610cf057610100808354040283529160200191610d19565b820191905f5260205f20905b815481529060010190602001808311610cfc57829003601f168201915b50505091835250506002919091015460ff1615156020909101529392505050565b610d45838383611606565b5f82806020019051810190610d5a9190612602565b5f858152600560209081526040808320815160808101835281546001600160a01b0390811682526001830154169381019390935260028101805495965093949293909291840191610daa906124be565b80601f0160208091040260200160405190810160405280929190818152602001828054610dd6906124be565b8015610e215780601f10610df857610100808354040283529160200191610e21565b820191905f5260205f20905b815481529060010190602001808311610e0457829003601f168201915b5050505050815260200160038201548152505090505f60015f83602001516001600160a01b03166001600160a01b031681526020019081526020015f208260400151604051610e70919061247c565b908152602001604051809103902090508267ffffffffffffffff16826060015114610edd5760405162461bcd60e51b815260206004820152601860248201527f496e636f7272656374207061796d656e7420616d6f756e740000000000000000604482015260640161041a565b600181015460608301516040515f926001600160a01b031691908381818185875af1925050503d805f8114610f2d576040519150601f19603f3d011682016040523d82523d5f602084013e610f32565b606091505b5050905080610f835760405162461bcd60e51b815260206004820152600e60248201527f5061796d656e74206661696c6564000000000000000000000000000000000000604482015260640161041a565b600160048460400151604051610f99919061247c565b908152604080516020928190038301902086516001600160a01b03165f908152908352818120805460ff19169415159490941790935589835260059091528120805473ffffffffffffffffffffffffffffffffffffffff19908116825560018201805490911690559061100f6002830182611eae565b600382015f90555050826040015160405161102a919061247c565b604051809103902083602001516001600160a01b0316845f01516001600160a01b03167fe1b44d6d4dceed793c55cc36920895a1c371cf15f02813a739ad79e977aeb46c60405160405180910390a450505050505050565b6001600160a01b0382165f9081526001602052604080822090516110a790849061247c565b90815260405190819003602001902060018101549091506001600160a01b03166111075760405162461bcd60e51b815260206004820152601160248201527014d95c9d9a58d9481b9bdd08199bdd5b99607a1b604482015260640161041a565b600482604051611117919061247c565b9081526040805160209281900383019020335f908152925290205460ff161561118e5760405162461bcd60e51b8152602060048201526024808201527f596f7520616c7265616479207061796d656e7420666f722074686973207365726044820152637669636560e01b606482015260840161041a565b6001600160a01b03831633036111e65760405162461bcd60e51b815260206004820152601560248201527f4f776e65722063616e6e6f74207061792073656c660000000000000000000000604482015260640161041a565b6040805160018082528183019092525f91602080830190803683375050506003830154909150815f8151811061121e5761121e612629565b60209081029190910101525f61123b826326f12a9360e21b61166f565b604080516080810182523381526001600160a01b0388811660208084019182528385018a81523460608601525f87815260059092529490208351815490841673ffffffffffffffffffffffffffffffffffffffff1991821617825591516001820180549190941692169190911790915591519293509160028201906112c09082612542565b50606082015181600301559050507fe99310bce32ef45690776613e2ac2a8ed81869e6c218a75e08688da5f9c99e4981856040516112ff92919061263d565b60405180910390a15050505050565b6001600160a01b0387165f90815260016020526040808220905161133390899061247c565b90815260405190819003602001902060018101549091506001600160a01b03166113935760405162461bcd60e51b815260206004820152601160248201527014d95c9d9a58d9481b9bdd08199bdd5b99607a1b604482015260640161041a565b6002876040516113a3919061247c565b9081526040805160209281900383019020335f908152925290206002015460ff16156114115760405162461bcd60e51b815260206004820152601860248201527f52657669657720616c7265616479207375626d69747465640000000000000000604482015260640161041a565b5f6114518787878080601f0160208091040260200160405190810160405280939291908181526020018383808284375f9201919091525061167b92505050565b905061145d8133611688565b50611467816115ed565b505f6114728261169a565b90505f61147f60016116a6565b90505f60038b604051611492919061247c565b908152602001604051809103902090506114af815f0154846116b8565b815560018101546114c090836116b8565b600182015580546114d0906115ed565b506114de81600101546115ed565b50604051806060016040528085815260200188888080601f0160208091040260200160405190810160405280939291908181526020018383808284375f920191909152505050908252506001602090910152604051600290611541908e9061247c565b9081526040805160209281900383019020335f90815290835220825181559082015160018201906115729082612542565b50604091820151600291909101805460ff19169115159190911790555161159a908c9061247c565b6040519081900381209033907f0ef4f9d8b93ff55ce14b593552db0c227199edf3015c06d33c327a710aa2b480905f90a3505050505050505050505050565b5f6115e6838360056116e6565b9392505050565b5f6115f88230611806565b5090565b5f6115f88261188d565b5f6116108461191e565b90505f61161e8285856119ef565b90508061163e5760405163cf6c44e960e01b815260040160405180910390fd5b60405185907f1af0453083661051f6e56e5c070792320652e612154bf9af8637bb1e7655b99d905f90a25050505050565b5f6115e683835f611adb565b5f6115e6838360026116e6565b5f6116938383611806565b5090919050565b5f6107c0826004611c09565b5f6107c08263ffffffff166004611cc6565b5f826116ca576116c75f6116a6565b92505b816116db576116d85f6116a6565b91505b6115e683835f611d3b565b7f9e7b61f58c47dc699ac88507c4f5bb9f121c03808c5676a8078fe583e46497015460405163196d0b9b60e01b81525f917f9e7b61f58c47dc699ac88507c4f5bb9f121c03808c5676a8078fe583e4649700916001600160a01b039091169063196d0b9b9061175f908890339089908990600401612675565b6020604051808303815f875af115801561177b573d5f803e3d5ffd5b505050506040513d601f19601f8201168201806040525081019061179f91906126b4565b8154604051630f8e573b60e21b8152600481018390523360248201529193506001600160a01b031690633e395cec906044015f604051808303815f87803b1580156117e8575f80fd5b505af11580156117fa573d5f803e3d5ffd5b50505050509392505050565b7f9e7b61f58c47dc699ac88507c4f5bb9f121c03808c5676a8078fe583e46497008054604051635ca4b5b160e11b8152600481018590526001600160a01b0384811660248301529091169063b9496b62906044015b5f604051808303815f87803b158015611872575f80fd5b505af1158015611884573d5f803e3d5ffd5b50505050505050565b6040805160018082528183019092527f9e7b61f58c47dc699ac88507c4f5bb9f121c03808c5676a8078fe583e4649700915f91906020808301908036833701905050905082815f815181106118e4576118e4612629565b60209081029190910101528154604051637d6e912360e11b81526001600160a01b039091169063fadd22469061185b908490600401612705565b5f8181527f878245876662ba28a480c5ea71726db859fb50222b0a3d7cbbc21cfa336faf0160205260408120546060917f878245876662ba28a480c5ea71726db859fb50222b0a3d7cbbc21cfa336faf0091900361198f5760405163d66ca67560e01b815260040160405180910390fd5b5f838152600182016020908152604091829020805483518184028101840190945280845290918301828280156119e257602002820191905f5260205f20905b8154815260200190600101908083116119ce575b5050505050915050919050565b5f80835160206119ff91906124ab565b611a0a9060206124ab565b90505f8482604051602001611a20929190612717565b60405160208183030381529060405290505f611a597f9e7b61f58c47dc699ac88507c4f5bb9f121c03808c5676a8078fe583e464970090565b60038101546040516378542ead60e01b81529192506001600160a01b0316906378542ead90611a90908a9086908a90600401612738565b6020604051808303815f875af1158015611aac573d5f803e3d5ffd5b505050506040513d601f19601f82011682018060405250810190611ad09190612770565b979650505050505050565b7f878245876662ba28a480c5ea71726db859fb50222b0a3d7cbbc21cfa336faf0080547f9e7b61f58c47dc699ac88507c4f5bb9f121c03808c5676a8078fe583e46497008054604051637d6e912360e11b81529293926001600160a01b039091169063fadd224690611b51908990600401612705565b5f604051808303815f87803b158015611b68575f80fd5b505af1158015611b7a573d5f803e3d5ffd5b5050506002820154604051633263b83b60e01b81526001600160a01b039091169150633263b83b908690611bb69087908b908b9060040161278f565b5f604051808303818588803b158015611bcd575f80fd5b505af1158015611bdf573d5f803e3d5ffd5b5050505050611bee8387611e1b565b8154825f611bfb836127c0565b919050555050509392505050565b7f9e7b61f58c47dc699ac88507c4f5bb9f121c03808c5676a8078fe583e4649701546040516307227b9160e21b81525f917f9e7b61f58c47dc699ac88507c4f5bb9f121c03808c5676a8078fe583e4649700916001600160a01b0390911690631c89ee4490611c7e90879087906004016127d8565b6020604051808303815f875af1158015611c9a573d5f803e3d5ffd5b505050506040513d601f19601f82011682018060405250810190611cbe91906126b4565b949350505050565b7f9e7b61f58c47dc699ac88507c4f5bb9f121c03808c5676a8078fe583e464970154604051639cd07acb60e01b81525f917f9e7b61f58c47dc699ac88507c4f5bb9f121c03808c5676a8078fe583e4649700916001600160a01b0390911690639cd07acb90611c7e90879087906004016127d8565b5f808215611d4e5750600160f81b611d51565b505f5b5f7f9e7b61f58c47dc699ac88507c4f5bb9f121c03808c5676a8078fe583e4649700600181015460405163022f65e760e31b815260048101899052602481018890527fff00000000000000000000000000000000000000000000000000000000000000851660448201529192506001600160a01b03169063117b2f38906064016020604051808303815f875af1158015611ded573d5f803e3d5ffd5b505050506040513d601f19601f82011682018060405250810190611e1191906126b4565b9695505050505050565b5f8281527f878245876662ba28a480c5ea71726db859fb50222b0a3d7cbbc21cfa336faf0160205260409020547f878245876662ba28a480c5ea71726db859fb50222b0a3d7cbbc21cfa336faf009015611e8857604051633f06d22b60e01b815260040160405180910390fd5b5f83815260018201602090815260409091208351611ea892850190611ee8565b50505050565b508054611eba906124be565b5f825580601f10611ec9575050565b601f0160209004905f5260205f2090810190611ee59190611f29565b50565b828054828255905f5260205f20908101928215611f21579160200282015b82811115611f21578251825591602001919060010190611f06565b506115f89291505b5b808211156115f8575f8155600101611f2a565b634e487b7160e01b5f52604160045260245ffd5b5f82601f830112611f60575f80fd5b813567ffffffffffffffff80821115611f7b57611f7b611f3d565b604051601f8301601f19908116603f01168101908282118183101715611fa357611fa3611f3d565b81604052838152866020858801011115611fbb575f80fd5b836020870160208301375f602085830101528094505050505092915050565b5f8083601f840112611fea575f80fd5b50813567ffffffffffffffff811115612001575f80fd5b602083019150836020828501011115612018575f80fd5b9250929050565b5f805f805f60808688031215612033575f80fd5b853567ffffffffffffffff8082111561204a575f80fd5b61205689838a01611f51565b9650602088013591508082111561206b575f80fd5b61207789838a01611f51565b9550604088013594506060880135915080821115612093575f80fd5b506120a088828901611fda565b969995985093965092949392505050565b80356001600160a01b03811681146120c7575f80fd5b919050565b5f80604083850312156120dd575f80fd5b823567ffffffffffffffff8111156120f3575f80fd5b6120ff85828601611f51565b92505061210e602084016120b1565b90509250929050565b5f5b83811015612131578181015183820152602001612119565b50505f910152565b5f8151808452612150816020860160208601612117565b601f01601f19169290920160200192915050565b602081525f82516080602084015261217f60a0840182612139565b90506001600160a01b0360208501511660408401526040840151601f198483030160608501526121af8282612139565b915050606084015160808401528091505092915050565b5f602082840312156121d6575f80fd5b5035919050565b5f6001600160a01b038087168352808616602084015250608060408301526122086080830185612139565b905082606083015295945050505050565b5f806040838503121561222a575f80fd5b612233836120b1565b9150602083013567ffffffffffffffff81111561224e575f80fd5b61225a85828601611f51565b9150509250929050565b608081525f6122766080830187612139565b6001600160a01b038616602084015282810360408401526122978186612139565b91505082606083015295945050505050565b838152606060208201525f6122c16060830185612139565b90508215156040830152949350505050565b602081525f6115e66020830184612139565b5f602082840312156122f5575f80fd5b6115e6826120b1565b60208152815160208201525f6020830151606060408401526123236080840182612139565b90506040840151151560608401528091505092915050565b5f6020828403121561234b575f80fd5b813567ffffffffffffffff811115612361575f80fd5b611cbe84828501611f51565b5f805f6060848603121561237f575f80fd5b83359250602084013567ffffffffffffffff8082111561239d575f80fd5b6123a987838801611f51565b935060408601359150808211156123be575f80fd5b506123cb86828701611f51565b9150509250925092565b5f805f805f805f60a0888a0312156123eb575f80fd5b6123f4886120b1565b9650602088013567ffffffffffffffff80821115612410575f80fd5b61241c8b838c01611f51565b975060408a0135965060608a0135915080821115612438575f80fd5b6124448b838c01611fda565b909650945060808a013591508082111561245c575f80fd5b506124698a828b01611fda565b989b979a50959850939692959293505050565b5f825161248d818460208701612117565b9190910192915050565b634e487b7160e01b5f52601160045260245ffd5b808201808211156107c0576107c0612497565b600181811c908216806124d257607f821691505b6020821081036124f057634e487b7160e01b5f52602260045260245ffd5b50919050565b601f82111561253d57805f5260205f20601f840160051c8101602085101561251b5750805b601f840160051c820191505b8181101561253a575f8155600101612527565b50505b505050565b815167ffffffffffffffff81111561255c5761255c611f3d565b6125708161256a84546124be565b846124f6565b602080601f8311600181146125a3575f841561258c5750858301515b5f19600386901b1c1916600185901b1785556125fa565b5f85815260208120601f198616915b828110156125d1578886015182559484019460019091019084016125b2565b50858210156125ee57878501515f19600388901b60f8161c191681555b505060018460011b0185555b505050505050565b5f60208284031215612612575f80fd5b815167ffffffffffffffff811681146115e6575f80fd5b634e487b7160e01b5f52603260045260245ffd5b828152604060208201525f611cbe6040830184612139565b6054811061267157634e487b7160e01b5f52602160045260245ffd5b9052565b8481526001600160a01b0384166020820152608060408201525f61269c6080830185612139565b90506126ab6060830184612655565b95945050505050565b5f602082840312156126c4575f80fd5b5051919050565b5f815180845260208085019450602084015f5b838110156126fa578151875295820195908201906001016126de565b509495945050505050565b602081525f6115e660208301846126cb565b5f8351612728818460208801612117565b9190910191825250602001919050565b606081525f61274a60608301866126cb565b828103602084015261275c8186612139565b90508281036040840152611e118185612139565b5f60208284031215612780575f80fd5b815180151581146115e6575f80fd5b838152606060208201525f6127a760608301856126cb565b905063ffffffff60e01b83166040830152949350505050565b5f600182016127d1576127d1612497565b5060010190565b828152604081016115e6602083018461265556fea164736f6c6343000818000a",
  "linkReferences": {},
  "deployedLinkReferences": {}
}